{
  "_format": "hh-sol-artifact-1",
  "contractName": "SimpleGVTTransfer",
  "sourceName": "Contracts/temp.sol",
  "abi": [
    {
      "inputs": [
        {
          "internalType": "address",
          "name": "_govToken",
          "type": "address"
        }
      ],
      "stateMutability": "nonpayable",
      "type": "constructor"
    },
    {
      "anonymous": false,
      "inputs": [
        {
          "indexed": true,
          "internalType": "address",
          "name": "sender",
          "type": "address"
        },
        {
          "indexed": true,
          "internalType": "address",
          "name": "receiver",
          "type": "address"
        },
        {
          "indexed": false,
          "internalType": "uint256",
          "name": "amount",
          "type": "uint256"
        }
      ],
      "name": "TokensTransferred",
      "type": "event"
    },
    {
      "inputs": [],
      "name": "govToken",
      "outputs": [
        {
          "internalType": "contract IERC20",
          "name": "",
          "type": "address"
        }
      ],
      "stateMutability": "view",
      "type": "function"
    },
    {
      "inputs": [
        {
          "internalType": "address",
          "name": "receiver",
          "type": "address"
        },
        {
          "internalType": "uint256",
          "name": "amount",
          "type": "uint256"
        }
      ],
      "name": "transferTokens",
      "outputs": [],
      "stateMutability": "nonpayable",
      "type": "function"
    }
  ],
  "bytecode": "0x608060405234801561001057600080fd5b506040516108503803806108508339818101604052810190610032919061014a565b600073ffffffffffffffffffffffffffffffffffffffff168173ffffffffffffffffffffffffffffffffffffffff16036100a1576040517f08c379a0000000000000000000000000000000000000000000000000000000008152600401610098906101d4565b60405180910390fd5b806000806101000a81548173ffffffffffffffffffffffffffffffffffffffff021916908373ffffffffffffffffffffffffffffffffffffffff160217905550506101f4565b600080fd5b600073ffffffffffffffffffffffffffffffffffffffff82169050919050565b6000610117826100ec565b9050919050565b6101278161010c565b811461013257600080fd5b50565b6000815190506101448161011e565b92915050565b6000602082840312156101605761015f6100e7565b5b600061016e84828501610135565b91505092915050565b600082825260208201905092915050565b7f496e76616c696420746f6b656e20616464726573730000000000000000000000600082015250565b60006101be601583610177565b91506101c982610188565b602082019050919050565b600060208201905081810360008301526101ed816101b1565b9050919050565b61064d806102036000396000f3fe608060405234801561001057600080fd5b50600436106100365760003560e01c806305268cff1461003b578063bec3fa1714610059575b600080fd5b610043610075565b6040516100509190610319565b60405180910390f35b610073600480360381019061006e91906103ad565b610099565b005b60008054906101000a900473ffffffffffffffffffffffffffffffffffffffff1681565b600073ffffffffffffffffffffffffffffffffffffffff168273ffffffffffffffffffffffffffffffffffffffff1603610108576040517f08c379a00000000000000000000000000000000000000000000000000000000081526004016100ff9061044a565b60405180910390fd5b6000811161014b576040517f08c379a0000000000000000000000000000000000000000000000000000000008152600401610142906104b6565b60405180910390fd5b60008060009054906101000a900473ffffffffffffffffffffffffffffffffffffffff1673ffffffffffffffffffffffffffffffffffffffff166323b872dd3385856040518463ffffffff1660e01b81526004016101ab939291906104f4565b6020604051808303816000875af11580156101ca573d6000803e3d6000fd5b505050506040513d601f19601f820116820180604052508101906101ee9190610563565b905080610230576040517f08c379a0000000000000000000000000000000000000000000000000000000008152600401610227906105dc565b60405180910390fd5b8273ffffffffffffffffffffffffffffffffffffffff163373ffffffffffffffffffffffffffffffffffffffff167f1b89874203ff7f0bba87c969ada3f32fda22ed38a6706d35199d21280c7811b18460405161028d91906105fc565b60405180910390a3505050565b600073ffffffffffffffffffffffffffffffffffffffff82169050919050565b6000819050919050565b60006102df6102da6102d58461029a565b6102ba565b61029a565b9050919050565b60006102f1826102c4565b9050919050565b6000610303826102e6565b9050919050565b610313816102f8565b82525050565b600060208201905061032e600083018461030a565b92915050565b600080fd5b60006103448261029a565b9050919050565b61035481610339565b811461035f57600080fd5b50565b6000813590506103718161034b565b92915050565b6000819050919050565b61038a81610377565b811461039557600080fd5b50565b6000813590506103a781610381565b92915050565b600080604083850312156103c4576103c3610334565b5b60006103d285828601610362565b92505060206103e385828601610398565b9150509250929050565b600082825260208201905092915050565b7f496e76616c696420726563656976657220616464726573730000000000000000600082015250565b60006104346018836103ed565b915061043f826103fe565b602082019050919050565b6000602082019050818103600083015261046381610427565b9050919050565b7f416d6f756e74206d7573742062652067726561746572207468616e207a65726f600082015250565b60006104a06020836103ed565b91506104ab8261046a565b602082019050919050565b600060208201905081810360008301526104cf81610493565b9050919050565b6104df81610339565b82525050565b6104ee81610377565b82525050565b600060608201905061050960008301866104d6565b61051660208301856104d6565b61052360408301846104e5565b949350505050565b60008115159050919050565b6105408161052b565b811461054b57600080fd5b50565b60008151905061055d81610537565b92915050565b60006020828403121561057957610578610334565b5b60006105878482850161054e565b91505092915050565b7f546f6b656e207472616e73666572206661696c65640000000000000000000000600082015250565b60006105c66015836103ed565b91506105d182610590565b602082019050919050565b600060208201905081810360008301526105f5816105b9565b9050919050565b600060208201905061061160008301846104e5565b9291505056fea26469706673582212207ea87af14e3a469e8e0a149a1af35f5b055521e38fccd4c6c2e8eec49ebd383764736f6c634300081c0033",
  "linkReferences": {},
  "deployedLinkReferences": {}
}