{
  "_format": "hh-sol-artifact-1",
  "contractName": "FundToken",
  "sourceName": "Contracts/GovToken.sol",
  "abi": [
    {
      "inputs": [
        {
          "internalType": "uint256",
          "name": "initialSupply",
          "type": "uint256"
        }
      ],
      "stateMutability": "nonpayable",
      "type": "constructor"
    },
    {
      "inputs": [
        {
          "internalType": "address",
          "name": "spender",
          "type": "address"
        },
        {
          "internalType": "uint256",
          "name": "allowance",
          "type": "uint256"
        },
        {
          "internalType": "uint256",
          "name": "needed",
          "type": "uint256"
        }
      ],
      "name": "ERC20InsufficientAllowance",
      "type": "error"
    },
    {
      "inputs": [
        {
          "internalType": "address",
          "name": "sender",
          "type": "address"
        },
        {
          "internalType": "uint256",
          "name": "balance",
          "type": "uint256"
        },
        {
          "internalType": "uint256",
          "name": "needed",
          "type": "uint256"
        }
      ],
      "name": "ERC20InsufficientBalance",
      "type": "error"
    },
    {
      "inputs": [
        {
          "internalType": "address",
          "name": "approver",
          "type": "address"
        }
      ],
      "name": "ERC20InvalidApprover",
      "type": "error"
    },
    {
      "inputs": [
        {
          "internalType": "address",
          "name": "receiver",
          "type": "address"
        }
      ],
      "name": "ERC20InvalidReceiver",
      "type": "error"
    },
    {
      "inputs": [
        {
          "internalType": "address",
          "name": "sender",
          "type": "address"
        }
      ],
      "name": "ERC20InvalidSender",
      "type": "error"
    },
    {
      "inputs": [
        {
          "internalType": "address",
          "name": "spender",
          "type": "address"
        }
      ],
      "name": "ERC20InvalidSpender",
      "type": "error"
    },
    {
      "inputs": [
        {
          "internalType": "address",
          "name": "owner",
          "type": "address"
        }
      ],
      "name": "OwnableInvalidOwner",
      "type": "error"
    },
    {
      "inputs": [
        {
          "internalType": "address",
          "name": "account",
          "type": "address"
        }
      ],
      "name": "OwnableUnauthorizedAccount",
      "type": "error"
    },
    {
      "anonymous": false,
      "inputs": [
        {
          "indexed": true,
          "internalType": "address",
          "name": "owner",
          "type": "address"
        },
        {
          "indexed": true,
          "internalType": "address",
          "name": "spender",
          "type": "address"
        },
        {
          "indexed": false,
          "internalType": "uint256",
          "name": "value",
          "type": "uint256"
        }
      ],
      "name": "Approval",
      "type": "event"
    },
    {
      "anonymous": false,
      "inputs": [
        {
          "indexed": true,
          "internalType": "address",
          "name": "previousOwner",
          "type": "address"
        },
        {
          "indexed": true,
          "internalType": "address",
          "name": "newOwner",
          "type": "address"
        }
      ],
      "name": "OwnershipTransferred",
      "type": "event"
    },
    {
      "anonymous": false,
      "inputs": [
        {
          "indexed": true,
          "internalType": "address",
          "name": "from",
          "type": "address"
        },
        {
          "indexed": true,
          "internalType": "address",
          "name": "to",
          "type": "address"
        },
        {
          "indexed": false,
          "internalType": "uint256",
          "name": "value",
          "type": "uint256"
        }
      ],
      "name": "Transfer",
      "type": "event"
    },
    {
      "inputs": [
        {
          "internalType": "address",
          "name": "owner",
          "type": "address"
        },
        {
          "internalType": "address",
          "name": "spender",
          "type": "address"
        }
      ],
      "name": "allowance",
      "outputs": [
        {
          "internalType": "uint256",
          "name": "",
          "type": "uint256"
        }
      ],
      "stateMutability": "view",
      "type": "function"
    },
    {
      "inputs": [
        {
          "internalType": "address",
          "name": "spender",
          "type": "address"
        },
        {
          "internalType": "uint256",
          "name": "value",
          "type": "uint256"
        }
      ],
      "name": "approve",
      "outputs": [
        {
          "internalType": "bool",
          "name": "",
          "type": "bool"
        }
      ],
      "stateMutability": "nonpayable",
      "type": "function"
    },
    {
      "inputs": [
        {
          "internalType": "address",
          "name": "account",
          "type": "address"
        }
      ],
      "name": "balanceOf",
      "outputs": [
        {
          "internalType": "uint256",
          "name": "",
          "type": "uint256"
        }
      ],
      "stateMutability": "view",
      "type": "function"
    },
    {
      "inputs": [],
      "name": "decimals",
      "outputs": [
        {
          "internalType": "uint8",
          "name": "",
          "type": "uint8"
        }
      ],
      "stateMutability": "view",
      "type": "function"
    },
    {
      "inputs": [],
      "name": "getTokenPriceInRs",
      "outputs": [
        {
          "internalType": "uint256",
          "name": "",
          "type": "uint256"
        }
      ],
      "stateMutability": "view",
      "type": "function"
    },
    {
      "inputs": [
        {
          "internalType": "address",
          "name": "to",
          "type": "address"
        },
        {
          "internalType": "uint256",
          "name": "amountInRs",
          "type": "uint256"
        }
      ],
      "name": "mintTokensByAmountInRs",
      "outputs": [],
      "stateMutability": "nonpayable",
      "type": "function"
    },
    {
      "inputs": [],
      "name": "name",
      "outputs": [
        {
          "internalType": "string",
          "name": "",
          "type": "string"
        }
      ],
      "stateMutability": "view",
      "type": "function"
    },
    {
      "inputs": [],
      "name": "owner",
      "outputs": [
        {
          "internalType": "address",
          "name": "",
          "type": "address"
        }
      ],
      "stateMutability": "view",
      "type": "function"
    },
    {
      "inputs": [],
      "name": "renounceOwnership",
      "outputs": [],
      "stateMutability": "nonpayable",
      "type": "function"
    },
    {
      "inputs": [
        {
          "internalType": "uint256",
          "name": "newPrice",
          "type": "uint256"
        }
      ],
      "name": "setTokenPriceInRs",
      "outputs": [],
      "stateMutability": "nonpayable",
      "type": "function"
    },
    {
      "inputs": [],
      "name": "symbol",
      "outputs": [
        {
          "internalType": "string",
          "name": "",
          "type": "string"
        }
      ],
      "stateMutability": "view",
      "type": "function"
    },
    {
      "inputs": [],
      "name": "tokenPriceInRs",
      "outputs": [
        {
          "internalType": "uint256",
          "name": "",
          "type": "uint256"
        }
      ],
      "stateMutability": "view",
      "type": "function"
    },
    {
      "inputs": [],
      "name": "totalSupply",
      "outputs": [
        {
          "internalType": "uint256",
          "name": "",
          "type": "uint256"
        }
      ],
      "stateMutability": "view",
      "type": "function"
    },
    {
      "inputs": [
        {
          "internalType": "address",
          "name": "to",
          "type": "address"
        },
        {
          "internalType": "uint256",
          "name": "value",
          "type": "uint256"
        }
      ],
      "name": "transfer",
      "outputs": [
        {
          "internalType": "bool",
          "name": "",
          "type": "bool"
        }
      ],
      "stateMutability": "nonpayable",
      "type": "function"
    },
    {
      "inputs": [
        {
          "internalType": "address",
          "name": "from",
          "type": "address"
        },
        {
          "internalType": "address",
          "name": "to",
          "type": "address"
        },
        {
          "internalType": "uint256",
          "name": "value",
          "type": "uint256"
        }
      ],
      "name": "transferFrom",
      "outputs": [
        {
          "internalType": "bool",
          "name": "",
          "type": "bool"
        }
      ],
      "stateMutability": "nonpayable",
      "type": "function"
    },
    {
      "inputs": [
        {
          "internalType": "address",
          "name": "newOwner",
          "type": "address"
        }
      ],
      "name": "transferOwnership",
      "outputs": [],
      "stateMutability": "nonpayable",
      "type": "function"
    }
  ],
  "bytecode": "0x6080604052606460065534801561001557600080fd5b5060405161211338038061211383398181016040528101906100379190610539565b336040518060400160405280600981526020017f46756e64546f6b656e00000000000000000000000000000000000000000000008152506040518060400160405280600381526020017f46544b000000000000000000000000000000000000000000000000000000000081525081600390816100b391906107ac565b5080600490816100c391906107ac565b505050600073ffffffffffffffffffffffffffffffffffffffff168173ffffffffffffffffffffffffffffffffffffffff16036101385760006040517f1e4fbdf700000000000000000000000000000000000000000000000000000000815260040161012f91906108bf565b60405180910390fd5b6101478161018260201b60201c565b5061017c3361015a61024860201b60201c565b600a6101669190610a49565b836101719190610a94565b61025160201b60201c565b50610b6b565b6000600560009054906101000a900473ffffffffffffffffffffffffffffffffffffffff16905081600560006101000a81548173ffffffffffffffffffffffffffffffffffffffff021916908373ffffffffffffffffffffffffffffffffffffffff1602179055508173ffffffffffffffffffffffffffffffffffffffff168173ffffffffffffffffffffffffffffffffffffffff167f8be0079c531659141344cd1fd0a4f28419497f9722a3daafe3b4186f6b6457e060405160405180910390a35050565b60006012905090565b600073ffffffffffffffffffffffffffffffffffffffff168273ffffffffffffffffffffffffffffffffffffffff16036102c35760006040517fec442f050000000000000000000000000000000000000000000000000000000081526004016102ba91906108bf565b60405180910390fd5b6102d5600083836102d960201b60201c565b5050565b600073ffffffffffffffffffffffffffffffffffffffff168373ffffffffffffffffffffffffffffffffffffffff160361032b57806002600082825461031f9190610ad6565b925050819055506103fe565b60008060008573ffffffffffffffffffffffffffffffffffffffff1673ffffffffffffffffffffffffffffffffffffffff168152602001908152602001600020549050818110156103b7578381836040517fe450d38c0000000000000000000000000000000000000000000000000000000081526004016103ae93929190610b19565b60405180910390fd5b8181036000808673ffffffffffffffffffffffffffffffffffffffff1673ffffffffffffffffffffffffffffffffffffffff16815260200190815260200160002081905550505b600073ffffffffffffffffffffffffffffffffffffffff168273ffffffffffffffffffffffffffffffffffffffff16036104475780600260008282540392505081905550610494565b806000808473ffffffffffffffffffffffffffffffffffffffff1673ffffffffffffffffffffffffffffffffffffffff168152602001908152602001600020600082825401925050819055505b8173ffffffffffffffffffffffffffffffffffffffff168373ffffffffffffffffffffffffffffffffffffffff167fddf252ad1be2c89b69c2b068fc378daa952ba7f163c4a11628f55a4df523b3ef836040516104f19190610b50565b60405180910390a3505050565b600080fd5b6000819050919050565b61051681610503565b811461052157600080fd5b50565b6000815190506105338161050d565b92915050565b60006020828403121561054f5761054e6104fe565b5b600061055d84828501610524565b91505092915050565b600081519050919050565b7f4e487b7100000000000000000000000000000000000000000000000000000000600052604160045260246000fd5b7f4e487b7100000000000000000000000000000000000000000000000000000000600052602260045260246000fd5b600060028204905060018216806105e757607f821691505b6020821081036105fa576105f96105a0565b5b50919050565b60008190508160005260206000209050919050565b60006020601f8301049050919050565b600082821b905092915050565b6000600883026106627fffffffffffffffffffffffffffffffffffffffffffffffffffffffffffffffff82610625565b61066c8683610625565b95508019841693508086168417925050509392505050565b6000819050919050565b60006106a96106a461069f84610503565b610684565b610503565b9050919050565b6000819050919050565b6106c38361068e565b6106d76106cf826106b0565b848454610632565b825550505050565b600090565b6106ec6106df565b6106f78184846106ba565b505050565b5b8181101561071b576107106000826106e4565b6001810190506106fd565b5050565b601f8211156107605761073181610600565b61073a84610615565b81016020851015610749578190505b61075d61075585610615565b8301826106fc565b50505b505050565b600082821c905092915050565b600061078360001984600802610765565b1980831691505092915050565b600061079c8383610772565b9150826002028217905092915050565b6107b582610566565b67ffffffffffffffff8111156107ce576107cd610571565b5b6107d882546105cf565b6107e382828561071f565b600060209050601f8311600181146108165760008415610804578287015190505b61080e8582610790565b865550610876565b601f19841661082486610600565b60005b8281101561084c57848901518255600182019150602085019450602081019050610827565b868310156108695784890151610865601f891682610772565b8355505b6001600288020188555050505b505050505050565b600073ffffffffffffffffffffffffffffffffffffffff82169050919050565b60006108a98261087e565b9050919050565b6108b98161089e565b82525050565b60006020820190506108d460008301846108b0565b92915050565b7f4e487b7100000000000000000000000000000000000000000000000000000000600052601160045260246000fd5b60008160011c9050919050565b6000808291508390505b60018511156109605780860481111561093c5761093b6108da565b5b600185161561094b5780820291505b808102905061095985610909565b9450610920565b94509492505050565b6000826109795760019050610a35565b816109875760009050610a35565b816001811461099d57600281146109a7576109d6565b6001915050610a35565b60ff8411156109b9576109b86108da565b5b8360020a9150848211156109d0576109cf6108da565b5b50610a35565b5060208310610133831016604e8410600b8410161715610a0b5782820a905083811115610a0657610a056108da565b5b610a35565b610a188484846001610916565b92509050818404811115610a2f57610a2e6108da565b5b81810290505b9392505050565b600060ff82169050919050565b6000610a5482610503565b9150610a5f83610a3c565b9250610a8c7fffffffffffffffffffffffffffffffffffffffffffffffffffffffffffffffff8484610969565b905092915050565b6000610a9f82610503565b9150610aaa83610503565b9250828202610ab881610503565b91508282048414831517610acf57610ace6108da565b5b5092915050565b6000610ae182610503565b9150610aec83610503565b9250828201905080821115610b0457610b036108da565b5b92915050565b610b1381610503565b82525050565b6000606082019050610b2e60008301866108b0565b610b3b6020830185610b0a565b610b486040830184610b0a565b949350505050565b6000602082019050610b656000830184610b0a565b92915050565b61159980610b7a6000396000f3fe608060405234801561001057600080fd5b50600436106101005760003560e01c8063821c5fd911610097578063a9059cbb11610066578063a9059cbb1461028d578063dd62ed3e146102bd578063eb3e3d13146102ed578063f2fde38b1461030957610100565b8063821c5fd9146102155780638da5cb5b1461023357806395d89b4114610251578063a0d540dc1461026f57610100565b8063313ce567116100d3578063313ce567146101a157806370a08231146101bf578063715018a6146101ef57806376ab5eca146101f957610100565b806306fdde0314610105578063095ea7b31461012357806318160ddd1461015357806323b872dd14610171575b600080fd5b61010d610325565b60405161011a9190610f0e565b60405180910390f35b61013d60048036038101906101389190610fc9565b6103b7565b60405161014a9190611024565b60405180910390f35b61015b6103da565b604051610168919061104e565b60405180910390f35b61018b60048036038101906101869190611069565b6103e4565b6040516101989190611024565b60405180910390f35b6101a9610413565b6040516101b691906110d8565b60405180910390f35b6101d960048036038101906101d491906110f3565b61041c565b6040516101e6919061104e565b60405180910390f35b6101f7610464565b005b610213600480360381019061020e9190611120565b610478565b005b61021d61048a565b60405161022a919061104e565b60405180910390f35b61023b610494565b604051610248919061115c565b60405180910390f35b6102596104be565b6040516102669190610f0e565b60405180910390f35b610277610550565b604051610284919061104e565b60405180910390f35b6102a760048036038101906102a29190610fc9565b610556565b6040516102b49190611024565b60405180910390f35b6102d760048036038101906102d29190611177565b610579565b6040516102e4919061104e565b60405180910390f35b61030760048036038101906103029190610fc9565b610600565b005b610323600480360381019061031e91906110f3565b61068a565b005b606060038054610334906111e6565b80601f0160208091040260200160405190810160405280929190818152602001828054610360906111e6565b80156103ad5780601f10610382576101008083540402835291602001916103ad565b820191906000526020600020905b81548152906001019060200180831161039057829003601f168201915b5050505050905090565b6000806103c2610710565b90506103cf818585610718565b600191505092915050565b6000600254905090565b6000806103ef610710565b90506103fc85828561072a565b6104078585856107bf565b60019150509392505050565b60006012905090565b60008060008373ffffffffffffffffffffffffffffffffffffffff1673ffffffffffffffffffffffffffffffffffffffff168152602001908152602001600020549050919050565b61046c6108b3565b610476600061093a565b565b6104806108b3565b8060068190555050565b6000600654905090565b6000600560009054906101000a900473ffffffffffffffffffffffffffffffffffffffff16905090565b6060600480546104cd906111e6565b80601f01602080910402602001604051908101604052809291908181526020018280546104f9906111e6565b80156105465780601f1061051b57610100808354040283529160200191610546565b820191906000526020600020905b81548152906001019060200180831161052957829003601f168201915b5050505050905090565b60065481565b600080610561610710565b905061056e8185856107bf565b600191505092915050565b6000600160008473ffffffffffffffffffffffffffffffffffffffff1673ffffffffffffffffffffffffffffffffffffffff16815260200190815260200160002060008373ffffffffffffffffffffffffffffffffffffffff1673ffffffffffffffffffffffffffffffffffffffff16815260200190815260200160002054905092915050565b6106086108b3565b6000600654610615610413565b600a6106219190611379565b8361062c91906113c4565b6106369190611435565b90506000811161067b576040517f08c379a0000000000000000000000000000000000000000000000000000000008152600401610672906114d8565b60405180910390fd5b6106858382610a00565b505050565b6106926108b3565b600073ffffffffffffffffffffffffffffffffffffffff168173ffffffffffffffffffffffffffffffffffffffff16036107045760006040517f1e4fbdf70000000000000000000000000000000000000000000000000000000081526004016106fb919061115c565b60405180910390fd5b61070d8161093a565b50565b600033905090565b6107258383836001610a82565b505050565b60006107368484610579565b90507fffffffffffffffffffffffffffffffffffffffffffffffffffffffffffffffff8110156107b957818110156107a9578281836040517ffb8f41b20000000000000000000000000000000000000000000000000000000081526004016107a0939291906114f8565b60405180910390fd5b6107b884848484036000610a82565b5b50505050565b600073ffffffffffffffffffffffffffffffffffffffff168373ffffffffffffffffffffffffffffffffffffffff16036108315760006040517f96c6fd1e000000000000000000000000000000000000000000000000000000008152600401610828919061115c565b60405180910390fd5b600073ffffffffffffffffffffffffffffffffffffffff168273ffffffffffffffffffffffffffffffffffffffff16036108a35760006040517fec442f0500000000000000000000000000000000000000000000000000000000815260040161089a919061115c565b60405180910390fd5b6108ae838383610c59565b505050565b6108bb610710565b73ffffffffffffffffffffffffffffffffffffffff166108d9610494565b73ffffffffffffffffffffffffffffffffffffffff1614610938576108fc610710565b6040517f118cdaa700000000000000000000000000000000000000000000000000000000815260040161092f919061115c565b60405180910390fd5b565b6000600560009054906101000a900473ffffffffffffffffffffffffffffffffffffffff16905081600560006101000a81548173ffffffffffffffffffffffffffffffffffffffff021916908373ffffffffffffffffffffffffffffffffffffffff1602179055508173ffffffffffffffffffffffffffffffffffffffff168173ffffffffffffffffffffffffffffffffffffffff167f8be0079c531659141344cd1fd0a4f28419497f9722a3daafe3b4186f6b6457e060405160405180910390a35050565b600073ffffffffffffffffffffffffffffffffffffffff168273ffffffffffffffffffffffffffffffffffffffff1603610a725760006040517fec442f05000000000000000000000000000000000000000000000000000000008152600401610a69919061115c565b60405180910390fd5b610a7e60008383610c59565b5050565b600073ffffffffffffffffffffffffffffffffffffffff168473ffffffffffffffffffffffffffffffffffffffff1603610af45760006040517fe602df05000000000000000000000000000000000000000000000000000000008152600401610aeb919061115c565b60405180910390fd5b600073ffffffffffffffffffffffffffffffffffffffff168373ffffffffffffffffffffffffffffffffffffffff1603610b665760006040517f94280d62000000000000000000000000000000000000000000000000000000008152600401610b5d919061115c565b60405180910390fd5b81600160008673ffffffffffffffffffffffffffffffffffffffff1673ffffffffffffffffffffffffffffffffffffffff16815260200190815260200160002060008573ffffffffffffffffffffffffffffffffffffffff1673ffffffffffffffffffffffffffffffffffffffff168152602001908152602001600020819055508015610c53578273ffffffffffffffffffffffffffffffffffffffff168473ffffffffffffffffffffffffffffffffffffffff167f8c5be1e5ebec7d5bd14f71427d1e84f3dd0314c0f7b2291e5b200ac8c7c3b92584604051610c4a919061104e565b60405180910390a35b50505050565b600073ffffffffffffffffffffffffffffffffffffffff168373ffffffffffffffffffffffffffffffffffffffff1603610cab578060026000828254610c9f919061152f565b92505081905550610d7e565b60008060008573ffffffffffffffffffffffffffffffffffffffff1673ffffffffffffffffffffffffffffffffffffffff16815260200190815260200160002054905081811015610d37578381836040517fe450d38c000000000000000000000000000000000000000000000000000000008152600401610d2e939291906114f8565b60405180910390fd5b8181036000808673ffffffffffffffffffffffffffffffffffffffff1673ffffffffffffffffffffffffffffffffffffffff16815260200190815260200160002081905550505b600073ffffffffffffffffffffffffffffffffffffffff168273ffffffffffffffffffffffffffffffffffffffff1603610dc75780600260008282540392505081905550610e14565b806000808473ffffffffffffffffffffffffffffffffffffffff1673ffffffffffffffffffffffffffffffffffffffff168152602001908152602001600020600082825401925050819055505b8173ffffffffffffffffffffffffffffffffffffffff168373ffffffffffffffffffffffffffffffffffffffff167fddf252ad1be2c89b69c2b068fc378daa952ba7f163c4a11628f55a4df523b3ef83604051610e71919061104e565b60405180910390a3505050565b600081519050919050565b600082825260208201905092915050565b60005b83811015610eb8578082015181840152602081019050610e9d565b60008484015250505050565b6000601f19601f8301169050919050565b6000610ee082610e7e565b610eea8185610e89565b9350610efa818560208601610e9a565b610f0381610ec4565b840191505092915050565b60006020820190508181036000830152610f288184610ed5565b905092915050565b600080fd5b600073ffffffffffffffffffffffffffffffffffffffff82169050919050565b6000610f6082610f35565b9050919050565b610f7081610f55565b8114610f7b57600080fd5b50565b600081359050610f8d81610f67565b92915050565b6000819050919050565b610fa681610f93565b8114610fb157600080fd5b50565b600081359050610fc381610f9d565b92915050565b60008060408385031215610fe057610fdf610f30565b5b6000610fee85828601610f7e565b9250506020610fff85828601610fb4565b9150509250929050565b60008115159050919050565b61101e81611009565b82525050565b60006020820190506110396000830184611015565b92915050565b61104881610f93565b82525050565b6000602082019050611063600083018461103f565b92915050565b60008060006060848603121561108257611081610f30565b5b600061109086828701610f7e565b93505060206110a186828701610f7e565b92505060406110b286828701610fb4565b9150509250925092565b600060ff82169050919050565b6110d2816110bc565b82525050565b60006020820190506110ed60008301846110c9565b92915050565b60006020828403121561110957611108610f30565b5b600061111784828501610f7e565b91505092915050565b60006020828403121561113657611135610f30565b5b600061114484828501610fb4565b91505092915050565b61115681610f55565b82525050565b6000602082019050611171600083018461114d565b92915050565b6000806040838503121561118e5761118d610f30565b5b600061119c85828601610f7e565b92505060206111ad85828601610f7e565b9150509250929050565b7f4e487b7100000000000000000000000000000000000000000000000000000000600052602260045260246000fd5b600060028204905060018216806111fe57607f821691505b602082108103611211576112106111b7565b5b50919050565b7f4e487b7100000000000000000000000000000000000000000000000000000000600052601160045260246000fd5b60008160011c9050919050565b6000808291508390505b600185111561129d5780860481111561127957611278611217565b5b60018516156112885780820291505b808102905061129685611246565b945061125d565b94509492505050565b6000826112b65760019050611372565b816112c45760009050611372565b81600181146112da57600281146112e457611313565b6001915050611372565b60ff8411156112f6576112f5611217565b5b8360020a91508482111561130d5761130c611217565b5b50611372565b5060208310610133831016604e8410600b84101617156113485782820a90508381111561134357611342611217565b5b611372565b6113558484846001611253565b9250905081840481111561136c5761136b611217565b5b81810290505b9392505050565b600061138482610f93565b915061138f836110bc565b92506113bc7fffffffffffffffffffffffffffffffffffffffffffffffffffffffffffffffff84846112a6565b905092915050565b60006113cf82610f93565b91506113da83610f93565b92508282026113e881610f93565b915082820484148315176113ff576113fe611217565b5b5092915050565b7f4e487b7100000000000000000000000000000000000000000000000000000000600052601260045260246000fd5b600061144082610f93565b915061144b83610f93565b92508261145b5761145a611406565b5b828204905092915050565b7f416d6f756e7420697320746f6f206c6f7720746f206d696e7420616e7920746f60008201527f6b656e7300000000000000000000000000000000000000000000000000000000602082015250565b60006114c2602483610e89565b91506114cd82611466565b604082019050919050565b600060208201905081810360008301526114f1816114b5565b9050919050565b600060608201905061150d600083018661114d565b61151a602083018561103f565b611527604083018461103f565b949350505050565b600061153a82610f93565b915061154583610f93565b925082820190508082111561155d5761155c611217565b5b9291505056fea2646970667358221220f5bffa9dbe5bbec677f1dba3d39bd7c9d70d20c5cbfbe53813aca15723c1836264736f6c634300081c0033",
  "linkReferences": {},
  "deployedLinkReferences": {}
}