{
  "_format": "hh-sol-artifact-1",
  "contractName": "ContractorFund",
  "sourceName": "Contracts/NewContractor.sol",
  "abi": [
    {
      "inputs": [
        {
          "internalType": "address",
          "name": "_govToken",
          "type": "address"
        }
      ],
      "stateMutability": "nonpayable",
      "type": "constructor"
    },
    {
      "inputs": [
        {
          "internalType": "address",
          "name": "owner",
          "type": "address"
        }
      ],
      "name": "OwnableInvalidOwner",
      "type": "error"
    },
    {
      "inputs": [
        {
          "internalType": "address",
          "name": "account",
          "type": "address"
        }
      ],
      "name": "OwnableUnauthorizedAccount",
      "type": "error"
    },
    {
      "anonymous": false,
      "inputs": [
        {
          "indexed": true,
          "internalType": "address",
          "name": "sender",
          "type": "address"
        },
        {
          "indexed": true,
          "internalType": "address",
          "name": "receiver",
          "type": "address"
        },
        {
          "indexed": false,
          "internalType": "uint256",
          "name": "amount",
          "type": "uint256"
        },
        {
          "indexed": false,
          "internalType": "string",
          "name": "contractID",
          "type": "string"
        },
        {
          "indexed": false,
          "internalType": "string",
          "name": "description",
          "type": "string"
        }
      ],
      "name": "FundTransferred",
      "type": "event"
    },
    {
      "anonymous": false,
      "inputs": [
        {
          "indexed": true,
          "internalType": "address",
          "name": "previousOwner",
          "type": "address"
        },
        {
          "indexed": true,
          "internalType": "address",
          "name": "newOwner",
          "type": "address"
        }
      ],
      "name": "OwnershipTransferred",
      "type": "event"
    },
    {
      "inputs": [
        {
          "internalType": "string",
          "name": "contractID",
          "type": "string"
        }
      ],
      "name": "getTransactions",
      "outputs": [
        {
          "components": [
            {
              "internalType": "address",
              "name": "sender",
              "type": "address"
            },
            {
              "internalType": "address",
              "name": "receiver",
              "type": "address"
            },
            {
              "internalType": "uint256",
              "name": "amount",
              "type": "uint256"
            },
            {
              "internalType": "string",
              "name": "description",
              "type": "string"
            },
            {
              "internalType": "uint256",
              "name": "timestamp",
              "type": "uint256"
            }
          ],
          "internalType": "struct ContractorFund.Transaction[]",
          "name": "",
          "type": "tuple[]"
        }
      ],
      "stateMutability": "view",
      "type": "function"
    },
    {
      "inputs": [],
      "name": "govToken",
      "outputs": [
        {
          "internalType": "contract IERC20",
          "name": "",
          "type": "address"
        }
      ],
      "stateMutability": "view",
      "type": "function"
    },
    {
      "inputs": [],
      "name": "owner",
      "outputs": [
        {
          "internalType": "address",
          "name": "",
          "type": "address"
        }
      ],
      "stateMutability": "view",
      "type": "function"
    },
    {
      "inputs": [],
      "name": "renounceOwnership",
      "outputs": [],
      "stateMutability": "nonpayable",
      "type": "function"
    },
    {
      "inputs": [
        {
          "internalType": "string",
          "name": "",
          "type": "string"
        },
        {
          "internalType": "uint256",
          "name": "",
          "type": "uint256"
        }
      ],
      "name": "transactions",
      "outputs": [
        {
          "internalType": "address",
          "name": "sender",
          "type": "address"
        },
        {
          "internalType": "address",
          "name": "receiver",
          "type": "address"
        },
        {
          "internalType": "uint256",
          "name": "amount",
          "type": "uint256"
        },
        {
          "internalType": "string",
          "name": "description",
          "type": "string"
        },
        {
          "internalType": "uint256",
          "name": "timestamp",
          "type": "uint256"
        }
      ],
      "stateMutability": "view",
      "type": "function"
    },
    {
      "inputs": [
        {
          "internalType": "address",
          "name": "newOwner",
          "type": "address"
        }
      ],
      "name": "transferOwnership",
      "outputs": [],
      "stateMutability": "nonpayable",
      "type": "function"
    },
    {
      "inputs": [
        {
          "internalType": "address",
          "name": "bank",
          "type": "address"
        },
        {
          "internalType": "uint256",
          "name": "amount",
          "type": "uint256"
        },
        {
          "internalType": "string",
          "name": "contractID",
          "type": "string"
        }
      ],
      "name": "transferToBank",
      "outputs": [],
      "stateMutability": "nonpayable",
      "type": "function"
    },
    {
      "inputs": [
        {
          "internalType": "uint256",
          "name": "amount",
          "type": "uint256"
        },
        {
          "internalType": "string",
          "name": "contractID",
          "type": "string"
        }
      ],
      "name": "transferToCentralGovernment",
      "outputs": [],
      "stateMutability": "nonpayable",
      "type": "function"
    },
    {
      "inputs": [
        {
          "internalType": "address",
          "name": "contractor",
          "type": "address"
        },
        {
          "internalType": "uint256",
          "name": "amount",
          "type": "uint256"
        },
        {
          "internalType": "string",
          "name": "contractID",
          "type": "string"
        }
      ],
      "name": "transferToContractor",
      "outputs": [],
      "stateMutability": "nonpayable",
      "type": "function"
    },
    {
      "inputs": [
        {
          "internalType": "address",
          "name": "state",
          "type": "address"
        },
        {
          "internalType": "uint256",
          "name": "amount",
          "type": "uint256"
        },
        {
          "internalType": "string",
          "name": "contractID",
          "type": "string"
        }
      ],
      "name": "transferToState",
      "outputs": [],
      "stateMutability": "nonpayable",
      "type": "function"
    }
  ],
  "bytecode": "0x608060405234801561001057600080fd5b506040516129d43803806129d483398181016040528101906100329190610292565b33600073ffffffffffffffffffffffffffffffffffffffff168173ffffffffffffffffffffffffffffffffffffffff16036100a55760006040517f1e4fbdf700000000000000000000000000000000000000000000000000000000815260040161009c91906102ce565b60405180910390fd5b6100b48161016b60201b60201c565b50600073ffffffffffffffffffffffffffffffffffffffff168173ffffffffffffffffffffffffffffffffffffffff1603610124576040517f08c379a000000000000000000000000000000000000000000000000000000000815260040161011b90610346565b60405180910390fd5b80600160006101000a81548173ffffffffffffffffffffffffffffffffffffffff021916908373ffffffffffffffffffffffffffffffffffffffff16021790555050610366565b60008060009054906101000a900473ffffffffffffffffffffffffffffffffffffffff169050816000806101000a81548173ffffffffffffffffffffffffffffffffffffffff021916908373ffffffffffffffffffffffffffffffffffffffff1602179055508173ffffffffffffffffffffffffffffffffffffffff168173ffffffffffffffffffffffffffffffffffffffff167f8be0079c531659141344cd1fd0a4f28419497f9722a3daafe3b4186f6b6457e060405160405180910390a35050565b600080fd5b600073ffffffffffffffffffffffffffffffffffffffff82169050919050565b600061025f82610234565b9050919050565b61026f81610254565b811461027a57600080fd5b50565b60008151905061028c81610266565b92915050565b6000602082840312156102a8576102a761022f565b5b60006102b68482850161027d565b91505092915050565b6102c881610254565b82525050565b60006020820190506102e360008301846102bf565b92915050565b600082825260208201905092915050565b7f496e76616c696420746f6b656e20616464726573730000000000000000000000600082015250565b60006103306015836102e9565b915061033b826102fa565b602082019050919050565b6000602082019050818103600083015261035f81610323565b9050919050565b61265f806103756000396000f3fe608060405234801561001057600080fd5b506004361061009e5760003560e01c806353b676e71161006657806353b676e7146101495780635e234d6e14610179578063715018a6146101955780638da5cb5b1461019f578063f2fde38b146101bd5761009e565b806305268cff146100a357806328dd5263146100c15780632da3b496146100dd5780634935efe7146100f957806350f5ef9e1461012d575b600080fd5b6100ab6101d9565b6040516100b891906115c6565b60405180910390f35b6100db60048036038101906100d691906117af565b6101ff565b005b6100f760048036038101906100f2919061181e565b6105fa565b005b610113600480360381019061010e919061187a565b610925565b604051610124959493929190611973565b60405180910390f35b610147600480360381019061014291906117af565b610a56565b005b610163600480360381019061015e91906119cd565b610ddc565b6040516101709190611bb6565b60405180910390f35b610193600480360381019061018e91906117af565b610fab565b005b61019d611331565b005b6101a7611345565b6040516101b49190611bd8565b60405180910390f35b6101d760048036038101906101d29190611bf3565b61136e565b005b600160009054906101000a900473ffffffffffffffffffffffffffffffffffffffff1681565b610207611345565b73ffffffffffffffffffffffffffffffffffffffff163373ffffffffffffffffffffffffffffffffffffffff1614610274576040517f08c379a000000000000000000000000000000000000000000000000000000000815260040161026b90611c92565b60405180910390fd5b600073ffffffffffffffffffffffffffffffffffffffff168373ffffffffffffffffffffffffffffffffffffffff16036102e3576040517f08c379a00000000000000000000000000000000000000000000000000000000081526004016102da90611cfe565b60405180910390fd5b60008211610326576040517f08c379a000000000000000000000000000000000000000000000000000000000815260040161031d90611d6a565b60405180910390fd5b600160009054906101000a900473ffffffffffffffffffffffffffffffffffffffff1673ffffffffffffffffffffffffffffffffffffffff1663a9059cbb84846040518363ffffffff1660e01b8152600401610383929190611d8a565b6020604051808303816000875af11580156103a2573d6000803e3d6000fd5b505050506040513d601f19601f820116820180604052508101906103c69190611deb565b610405576040517f08c379a00000000000000000000000000000000000000000000000000000000081526004016103fc90611e64565b60405180910390fd5b6002816040516104159190611ec0565b90815260200160405180910390206040518060a001604052803373ffffffffffffffffffffffffffffffffffffffff1681526020018573ffffffffffffffffffffffffffffffffffffffff1681526020018481526020016040518060400160405280600e81526020017f43656e7472616c546f5374617465000000000000000000000000000000000000815250815260200142815250908060018154018082558091505060019003906000526020600020906005020160009091909190915060008201518160000160006101000a81548173ffffffffffffffffffffffffffffffffffffffff021916908373ffffffffffffffffffffffffffffffffffffffff16021790555060208201518160010160006101000a81548173ffffffffffffffffffffffffffffffffffffffff021916908373ffffffffffffffffffffffffffffffffffffffff16021790555060408201518160020155606082015181600301908161058191906120d9565b506080820151816004015550508273ffffffffffffffffffffffffffffffffffffffff163373ffffffffffffffffffffffffffffffffffffffff167f27b01c807c599b8fe137aef95aee8f5be4785c77ab66e3475fe2a9125d618c6f84846040516105ed9291906121f7565b60405180910390a3505050565b6000821161063d576040517f08c379a000000000000000000000000000000000000000000000000000000000815260040161063490611d6a565b60405180910390fd5b600160009054906101000a900473ffffffffffffffffffffffffffffffffffffffff1673ffffffffffffffffffffffffffffffffffffffff1663a9059cbb610683611345565b846040518363ffffffff1660e01b81526004016106a1929190611d8a565b6020604051808303816000875af11580156106c0573d6000803e3d6000fd5b505050506040513d601f19601f820116820180604052508101906106e49190611deb565b610723576040517f08c379a000000000000000000000000000000000000000000000000000000000815260040161071a906122ac565b60405180910390fd5b6002816040516107339190611ec0565b90815260200160405180910390206040518060a001604052803373ffffffffffffffffffffffffffffffffffffffff168152602001610770611345565b73ffffffffffffffffffffffffffffffffffffffff1681526020018481526020016040518060400160405280600d81526020017f42616e6b546f43656e7472616c00000000000000000000000000000000000000815250815260200142815250908060018154018082558091505060019003906000526020600020906005020160009091909190915060008201518160000160006101000a81548173ffffffffffffffffffffffffffffffffffffffff021916908373ffffffffffffffffffffffffffffffffffffffff16021790555060208201518160010160006101000a81548173ffffffffffffffffffffffffffffffffffffffff021916908373ffffffffffffffffffffffffffffffffffffffff1602179055506040820151816002015560608201518160030190816108a691906120d9565b506080820151816004015550506108bb611345565b73ffffffffffffffffffffffffffffffffffffffff163373ffffffffffffffffffffffffffffffffffffffff167f27b01c807c599b8fe137aef95aee8f5be4785c77ab66e3475fe2a9125d618c6f8484604051610919929190612318565b60405180910390a35050565b600282805160208101820180518482526020830160208501208183528095505050505050818154811061095757600080fd5b9060005260206000209060050201600091509150508060000160009054906101000a900473ffffffffffffffffffffffffffffffffffffffff16908060010160009054906101000a900473ffffffffffffffffffffffffffffffffffffffff16908060020154908060030180546109cd90611f06565b80601f01602080910402602001604051908101604052809291908181526020018280546109f990611f06565b8015610a465780601f10610a1b57610100808354040283529160200191610a46565b820191906000526020600020905b815481529060010190602001808311610a2957829003601f168201915b5050505050908060040154905085565b600073ffffffffffffffffffffffffffffffffffffffff168373ffffffffffffffffffffffffffffffffffffffff1603610ac5576040517f08c379a0000000000000000000000000000000000000000000000000000000008152600401610abc906123a7565b60405180910390fd5b60008211610b08576040517f08c379a0000000000000000000000000000000000000000000000000000000008152600401610aff90611d6a565b60405180910390fd5b600160009054906101000a900473ffffffffffffffffffffffffffffffffffffffff1673ffffffffffffffffffffffffffffffffffffffff1663a9059cbb84846040518363ffffffff1660e01b8152600401610b65929190611d8a565b6020604051808303816000875af1158015610b84573d6000803e3d6000fd5b505050506040513d601f19601f82011682018060405250810190610ba89190611deb565b610be7576040517f08c379a0000000000000000000000000000000000000000000000000000000008152600401610bde90612413565b60405180910390fd5b600281604051610bf79190611ec0565b90815260200160405180910390206040518060a001604052803373ffffffffffffffffffffffffffffffffffffffff1681526020018573ffffffffffffffffffffffffffffffffffffffff1681526020018481526020016040518060400160405280601081526020017f436f6e74726163746f72546f42616e6b00000000000000000000000000000000815250815260200142815250908060018154018082558091505060019003906000526020600020906005020160009091909190915060008201518160000160006101000a81548173ffffffffffffffffffffffffffffffffffffffff021916908373ffffffffffffffffffffffffffffffffffffffff16021790555060208201518160010160006101000a81548173ffffffffffffffffffffffffffffffffffffffff021916908373ffffffffffffffffffffffffffffffffffffffff160217905550604082015181600201556060820151816003019081610d6391906120d9565b506080820151816004015550508273ffffffffffffffffffffffffffffffffffffffff163373ffffffffffffffffffffffffffffffffffffffff167f27b01c807c599b8fe137aef95aee8f5be4785c77ab66e3475fe2a9125d618c6f8484604051610dcf92919061247f565b60405180910390a3505050565b6060600282604051610dee9190611ec0565b9081526020016040518091039020805480602002602001604051908101604052809291908181526020016000905b82821015610fa057838290600052602060002090600502016040518060a00160405290816000820160009054906101000a900473ffffffffffffffffffffffffffffffffffffffff1673ffffffffffffffffffffffffffffffffffffffff1673ffffffffffffffffffffffffffffffffffffffff1681526020016001820160009054906101000a900473ffffffffffffffffffffffffffffffffffffffff1673ffffffffffffffffffffffffffffffffffffffff1673ffffffffffffffffffffffffffffffffffffffff16815260200160028201548152602001600382018054610f0590611f06565b80601f0160208091040260200160405190810160405280929190818152602001828054610f3190611f06565b8015610f7e5780601f10610f5357610100808354040283529160200191610f7e565b820191906000526020600020905b815481529060010190602001808311610f6157829003601f168201915b5050505050815260200160048201548152505081526020019060010190610e1c565b505050509050919050565b600073ffffffffffffffffffffffffffffffffffffffff168373ffffffffffffffffffffffffffffffffffffffff160361101a576040517f08c379a00000000000000000000000000000000000000000000000000000000081526004016110119061250e565b60405180910390fd5b6000821161105d576040517f08c379a000000000000000000000000000000000000000000000000000000000815260040161105490611d6a565b60405180910390fd5b600160009054906101000a900473ffffffffffffffffffffffffffffffffffffffff1673ffffffffffffffffffffffffffffffffffffffff1663a9059cbb84846040518363ffffffff1660e01b81526004016110ba929190611d8a565b6020604051808303816000875af11580156110d9573d6000803e3d6000fd5b505050506040513d601f19601f820116820180604052508101906110fd9190611deb565b61113c576040517f08c379a00000000000000000000000000000000000000000000000000000000081526004016111339061257a565b60405180910390fd5b60028160405161114c9190611ec0565b90815260200160405180910390206040518060a001604052803373ffffffffffffffffffffffffffffffffffffffff1681526020018573ffffffffffffffffffffffffffffffffffffffff1681526020018481526020016040518060400160405280601181526020017f5374617465546f436f6e74726163746f72000000000000000000000000000000815250815260200142815250908060018154018082558091505060019003906000526020600020906005020160009091909190915060008201518160000160006101000a81548173ffffffffffffffffffffffffffffffffffffffff021916908373ffffffffffffffffffffffffffffffffffffffff16021790555060208201518160010160006101000a81548173ffffffffffffffffffffffffffffffffffffffff021916908373ffffffffffffffffffffffffffffffffffffffff1602179055506040820151816002015560608201518160030190816112b891906120d9565b506080820151816004015550508273ffffffffffffffffffffffffffffffffffffffff163373ffffffffffffffffffffffffffffffffffffffff167f27b01c807c599b8fe137aef95aee8f5be4785c77ab66e3475fe2a9125d618c6f84846040516113249291906125e6565b60405180910390a3505050565b6113396113f4565b611343600061147b565b565b60008060009054906101000a900473ffffffffffffffffffffffffffffffffffffffff16905090565b6113766113f4565b600073ffffffffffffffffffffffffffffffffffffffff168173ffffffffffffffffffffffffffffffffffffffff16036113e85760006040517f1e4fbdf70000000000000000000000000000000000000000000000000000000081526004016113df9190611bd8565b60405180910390fd5b6113f18161147b565b50565b6113fc61153f565b73ffffffffffffffffffffffffffffffffffffffff1661141a611345565b73ffffffffffffffffffffffffffffffffffffffff16146114795761143d61153f565b6040517f118cdaa70000000000000000000000000000000000000000000000000000000081526004016114709190611bd8565b60405180910390fd5b565b60008060009054906101000a900473ffffffffffffffffffffffffffffffffffffffff169050816000806101000a81548173ffffffffffffffffffffffffffffffffffffffff021916908373ffffffffffffffffffffffffffffffffffffffff1602179055508173ffffffffffffffffffffffffffffffffffffffff168173ffffffffffffffffffffffffffffffffffffffff167f8be0079c531659141344cd1fd0a4f28419497f9722a3daafe3b4186f6b6457e060405160405180910390a35050565b600033905090565b600073ffffffffffffffffffffffffffffffffffffffff82169050919050565b6000819050919050565b600061158c61158761158284611547565b611567565b611547565b9050919050565b600061159e82611571565b9050919050565b60006115b082611593565b9050919050565b6115c0816115a5565b82525050565b60006020820190506115db60008301846115b7565b92915050565b6000604051905090565b600080fd5b600080fd5b600061160082611547565b9050919050565b611610816115f5565b811461161b57600080fd5b50565b60008135905061162d81611607565b92915050565b6000819050919050565b61164681611633565b811461165157600080fd5b50565b6000813590506116638161163d565b92915050565b600080fd5b600080fd5b6000601f19601f8301169050919050565b7f4e487b7100000000000000000000000000000000000000000000000000000000600052604160045260246000fd5b6116bc82611673565b810181811067ffffffffffffffff821117156116db576116da611684565b5b80604052505050565b60006116ee6115e1565b90506116fa82826116b3565b919050565b600067ffffffffffffffff82111561171a57611719611684565b5b61172382611673565b9050602081019050919050565b82818337600083830152505050565b600061175261174d846116ff565b6116e4565b90508281526020810184848401111561176e5761176d61166e565b5b611779848285611730565b509392505050565b600082601f83011261179657611795611669565b5b81356117a684826020860161173f565b91505092915050565b6000806000606084860312156117c8576117c76115eb565b5b60006117d68682870161161e565b93505060206117e786828701611654565b925050604084013567ffffffffffffffff811115611808576118076115f0565b5b61181486828701611781565b9150509250925092565b60008060408385031215611835576118346115eb565b5b600061184385828601611654565b925050602083013567ffffffffffffffff811115611864576118636115f0565b5b61187085828601611781565b9150509250929050565b60008060408385031215611891576118906115eb565b5b600083013567ffffffffffffffff8111156118af576118ae6115f0565b5b6118bb85828601611781565b92505060206118cc85828601611654565b9150509250929050565b6118df816115f5565b82525050565b6118ee81611633565b82525050565b600081519050919050565b600082825260208201905092915050565b60005b8381101561192e578082015181840152602081019050611913565b60008484015250505050565b6000611945826118f4565b61194f81856118ff565b935061195f818560208601611910565b61196881611673565b840191505092915050565b600060a08201905061198860008301886118d6565b61199560208301876118d6565b6119a260408301866118e5565b81810360608301526119b4818561193a565b90506119c360808301846118e5565b9695505050505050565b6000602082840312156119e3576119e26115eb565b5b600082013567ffffffffffffffff811115611a0157611a006115f0565b5b611a0d84828501611781565b91505092915050565b600081519050919050565b600082825260208201905092915050565b6000819050602082019050919050565b611a4b816115f5565b82525050565b611a5a81611633565b82525050565b600082825260208201905092915050565b6000611a7c826118f4565b611a868185611a60565b9350611a96818560208601611910565b611a9f81611673565b840191505092915050565b600060a083016000830151611ac26000860182611a42565b506020830151611ad56020860182611a42565b506040830151611ae86040860182611a51565b5060608301518482036060860152611b008282611a71565b9150506080830151611b156080860182611a51565b508091505092915050565b6000611b2c8383611aaa565b905092915050565b6000602082019050919050565b6000611b4c82611a16565b611b568185611a21565b935083602082028501611b6885611a32565b8060005b85811015611ba45784840389528151611b858582611b20565b9450611b9083611b34565b925060208a01995050600181019050611b6c565b50829750879550505050505092915050565b60006020820190508181036000830152611bd08184611b41565b905092915050565b6000602082019050611bed60008301846118d6565b92915050565b600060208284031215611c0957611c086115eb565b5b6000611c178482850161161e565b91505092915050565b7f4f6e6c792043656e7472616c20476f7665726e6d656e742063616e206578656360008201527f7574650000000000000000000000000000000000000000000000000000000000602082015250565b6000611c7c6023836118ff565b9150611c8782611c20565b604082019050919050565b60006020820190508181036000830152611cab81611c6f565b9050919050565b7f496e76616c696420737461746520616464726573730000000000000000000000600082015250565b6000611ce86015836118ff565b9150611cf382611cb2565b602082019050919050565b60006020820190508181036000830152611d1781611cdb565b9050919050565b7f416d6f756e74206d7573742062652067726561746572207468616e207a65726f600082015250565b6000611d546020836118ff565b9150611d5f82611d1e565b602082019050919050565b60006020820190508181036000830152611d8381611d47565b9050919050565b6000604082019050611d9f60008301856118d6565b611dac60208301846118e5565b9392505050565b60008115159050919050565b611dc881611db3565b8114611dd357600080fd5b50565b600081519050611de581611dbf565b92915050565b600060208284031215611e0157611e006115eb565b5b6000611e0f84828501611dd6565b91505092915050565b7f5472616e7366657220746f207374617465206661696c65640000000000000000600082015250565b6000611e4e6018836118ff565b9150611e5982611e18565b602082019050919050565b60006020820190508181036000830152611e7d81611e41565b9050919050565b600081905092915050565b6000611e9a826118f4565b611ea48185611e84565b9350611eb4818560208601611910565b80840191505092915050565b6000611ecc8284611e8f565b915081905092915050565b7f4e487b7100000000000000000000000000000000000000000000000000000000600052602260045260246000fd5b60006002820490506001821680611f1e57607f821691505b602082108103611f3157611f30611ed7565b5b50919050565b60008190508160005260206000209050919050565b60006020601f8301049050919050565b600082821b905092915050565b600060088302611f997fffffffffffffffffffffffffffffffffffffffffffffffffffffffffffffffff82611f5c565b611fa38683611f5c565b95508019841693508086168417925050509392505050565b6000611fd6611fd1611fcc84611633565b611567565b611633565b9050919050565b6000819050919050565b611ff083611fbb565b612004611ffc82611fdd565b848454611f69565b825550505050565b600090565b61201961200c565b612024818484611fe7565b505050565b5b818110156120485761203d600082612011565b60018101905061202a565b5050565b601f82111561208d5761205e81611f37565b61206784611f4c565b81016020851015612076578190505b61208a61208285611f4c565b830182612029565b50505b505050565b600082821c905092915050565b60006120b060001984600802612092565b1980831691505092915050565b60006120c9838361209f565b9150826002028217905092915050565b6120e2826118f4565b67ffffffffffffffff8111156120fb576120fa611684565b5b6121058254611f06565b61211082828561204c565b600060209050601f8311600181146121435760008415612131578287015190505b61213b85826120bd565b8655506121a3565b601f19841661215186611f37565b60005b8281101561217957848901518255600182019150602085019450602081019050612154565b868310156121965784890151612192601f89168261209f565b8355505b6001600288020188555050505b505050505050565b7f43656e7472616c546f5374617465000000000000000000000000000000000000600082015250565b60006121e1600e836118ff565b91506121ec826121ab565b602082019050919050565b600060608201905061220c60008301856118e5565b818103602083015261221e818461193a565b90508181036040830152612231816121d4565b90509392505050565b7f5472616e7366657220746f2063656e7472616c20676f7665726e6d656e74206660008201527f61696c6564000000000000000000000000000000000000000000000000000000602082015250565b60006122966025836118ff565b91506122a18261223a565b604082019050919050565b600060208201905081810360008301526122c581612289565b9050919050565b7f42616e6b546f43656e7472616c00000000000000000000000000000000000000600082015250565b6000612302600d836118ff565b915061230d826122cc565b602082019050919050565b600060608201905061232d60008301856118e5565b818103602083015261233f818461193a565b90508181036040830152612352816122f5565b90509392505050565b7f496e76616c69642062616e6b2061646472657373000000000000000000000000600082015250565b60006123916014836118ff565b915061239c8261235b565b602082019050919050565b600060208201905081810360008301526123c081612384565b9050919050565b7f5472616e7366657220746f2062616e6b206661696c6564000000000000000000600082015250565b60006123fd6017836118ff565b9150612408826123c7565b602082019050919050565b6000602082019050818103600083015261242c816123f0565b9050919050565b7f436f6e74726163746f72546f42616e6b00000000000000000000000000000000600082015250565b60006124696010836118ff565b915061247482612433565b602082019050919050565b600060608201905061249460008301856118e5565b81810360208301526124a6818461193a565b905081810360408301526124b98161245c565b90509392505050565b7f496e76616c696420636f6e74726163746f722061646472657373000000000000600082015250565b60006124f8601a836118ff565b9150612503826124c2565b602082019050919050565b60006020820190508181036000830152612527816124eb565b9050919050565b7f5472616e7366657220746f20636f6e74726163746f72206661696c6564000000600082015250565b6000612564601d836118ff565b915061256f8261252e565b602082019050919050565b6000602082019050818103600083015261259381612557565b9050919050565b7f5374617465546f436f6e74726163746f72000000000000000000000000000000600082015250565b60006125d06011836118ff565b91506125db8261259a565b602082019050919050565b60006060820190506125fb60008301856118e5565b818103602083015261260d818461193a565b90508181036040830152612620816125c3565b9050939250505056fea2646970667358221220dafb272aab95a0bcfe916c0a636c06eeb6d5a2383be8313385b601c022f9662664736f6c634300081c0033",
  "linkReferences": {},
  "deployedLinkReferences": {}
}