{
  "_format": "hh-sol-artifact-1",
  "contractName": "UniversalTokenTransfer",
  "sourceName": "Contracts/FundDistribution.sol",
  "abi": [
    {
      "inputs": [
        {
          "internalType": "address",
          "name": "_ftkTokenAddress",
          "type": "address"
        }
      ],
      "stateMutability": "nonpayable",
      "type": "constructor"
    },
    {
      "anonymous": false,
      "inputs": [
        {
          "indexed": true,
          "internalType": "uint256",
          "name": "id",
          "type": "uint256"
        },
        {
          "indexed": true,
          "internalType": "address",
          "name": "sender",
          "type": "address"
        },
        {
          "indexed": true,
          "internalType": "address",
          "name": "receiver",
          "type": "address"
        },
        {
          "indexed": false,
          "internalType": "uint256",
          "name": "amount",
          "type": "uint256"
        },
        {
          "indexed": false,
          "internalType": "string",
          "name": "uniqueId",
          "type": "string"
        },
        {
          "indexed": false,
          "internalType": "uint256",
          "name": "timestamp",
          "type": "uint256"
        }
      ],
      "name": "TokensTransferred",
      "type": "event"
    },
    {
      "inputs": [],
      "name": "centralGov",
      "outputs": [
        {
          "internalType": "address",
          "name": "",
          "type": "address"
        }
      ],
      "stateMutability": "view",
      "type": "function"
    },
    {
      "inputs": [
        {
          "internalType": "string",
          "name": "",
          "type": "string"
        },
        {
          "internalType": "uint256",
          "name": "",
          "type": "uint256"
        }
      ],
      "name": "contractTransactions",
      "outputs": [
        {
          "internalType": "uint256",
          "name": "",
          "type": "uint256"
        }
      ],
      "stateMutability": "view",
      "type": "function"
    },
    {
      "inputs": [],
      "name": "ftkToken",
      "outputs": [
        {
          "internalType": "contract IERC20",
          "name": "",
          "type": "address"
        }
      ],
      "stateMutability": "view",
      "type": "function"
    },
    {
      "inputs": [
        {
          "internalType": "address",
          "name": "account",
          "type": "address"
        }
      ],
      "name": "getBalance",
      "outputs": [
        {
          "internalType": "uint256",
          "name": "",
          "type": "uint256"
        }
      ],
      "stateMutability": "view",
      "type": "function"
    },
    {
      "inputs": [
        {
          "internalType": "address",
          "name": "account",
          "type": "address"
        },
        {
          "internalType": "string",
          "name": "uniqueId",
          "type": "string"
        }
      ],
      "name": "getReceivedTokens",
      "outputs": [
        {
          "internalType": "uint256",
          "name": "",
          "type": "uint256"
        }
      ],
      "stateMutability": "view",
      "type": "function"
    },
    {
      "inputs": [
        {
          "internalType": "address",
          "name": "account",
          "type": "address"
        },
        {
          "internalType": "string",
          "name": "uniqueId",
          "type": "string"
        }
      ],
      "name": "getSentTokens",
      "outputs": [
        {
          "internalType": "uint256",
          "name": "",
          "type": "uint256"
        }
      ],
      "stateMutability": "view",
      "type": "function"
    },
    {
      "inputs": [
        {
          "internalType": "string",
          "name": "uniqueId",
          "type": "string"
        }
      ],
      "name": "getTotalTokensSpent",
      "outputs": [
        {
          "internalType": "uint256",
          "name": "totalSpent",
          "type": "uint256"
        }
      ],
      "stateMutability": "view",
      "type": "function"
    },
    {
      "inputs": [
        {
          "internalType": "string",
          "name": "uniqueId",
          "type": "string"
        }
      ],
      "name": "getTransactionsByUniqueId",
      "outputs": [
        {
          "components": [
            {
              "internalType": "uint256",
              "name": "id",
              "type": "uint256"
            },
            {
              "internalType": "address",
              "name": "sender",
              "type": "address"
            },
            {
              "internalType": "address",
              "name": "receiver",
              "type": "address"
            },
            {
              "internalType": "uint256",
              "name": "amount",
              "type": "uint256"
            },
            {
              "internalType": "string",
              "name": "uniqueId",
              "type": "string"
            },
            {
              "internalType": "uint256",
              "name": "timestamp",
              "type": "uint256"
            }
          ],
          "internalType": "struct UniversalTokenTransfer.Transaction[]",
          "name": "",
          "type": "tuple[]"
        }
      ],
      "stateMutability": "view",
      "type": "function"
    },
    {
      "inputs": [
        {
          "internalType": "address",
          "name": "",
          "type": "address"
        },
        {
          "internalType": "string",
          "name": "",
          "type": "string"
        }
      ],
      "name": "lockedTokens",
      "outputs": [
        {
          "internalType": "uint256",
          "name": "",
          "type": "uint256"
        }
      ],
      "stateMutability": "view",
      "type": "function"
    },
    {
      "inputs": [
        {
          "internalType": "address",
          "name": "",
          "type": "address"
        },
        {
          "internalType": "string",
          "name": "",
          "type": "string"
        }
      ],
      "name": "tokensReceived",
      "outputs": [
        {
          "internalType": "uint256",
          "name": "",
          "type": "uint256"
        }
      ],
      "stateMutability": "view",
      "type": "function"
    },
    {
      "inputs": [
        {
          "internalType": "address",
          "name": "",
          "type": "address"
        },
        {
          "internalType": "string",
          "name": "",
          "type": "string"
        }
      ],
      "name": "tokensSent",
      "outputs": [
        {
          "internalType": "uint256",
          "name": "",
          "type": "uint256"
        }
      ],
      "stateMutability": "view",
      "type": "function"
    },
    {
      "inputs": [],
      "name": "transactionCounter",
      "outputs": [
        {
          "internalType": "uint256",
          "name": "",
          "type": "uint256"
        }
      ],
      "stateMutability": "view",
      "type": "function"
    },
    {
      "inputs": [
        {
          "internalType": "uint256",
          "name": "",
          "type": "uint256"
        }
      ],
      "name": "transactions",
      "outputs": [
        {
          "internalType": "uint256",
          "name": "id",
          "type": "uint256"
        },
        {
          "internalType": "address",
          "name": "sender",
          "type": "address"
        },
        {
          "internalType": "address",
          "name": "receiver",
          "type": "address"
        },
        {
          "internalType": "uint256",
          "name": "amount",
          "type": "uint256"
        },
        {
          "internalType": "string",
          "name": "uniqueId",
          "type": "string"
        },
        {
          "internalType": "uint256",
          "name": "timestamp",
          "type": "uint256"
        }
      ],
      "stateMutability": "view",
      "type": "function"
    },
    {
      "inputs": [
        {
          "internalType": "address",
          "name": "sender",
          "type": "address"
        },
        {
          "internalType": "address",
          "name": "receiver",
          "type": "address"
        },
        {
          "internalType": "uint256",
          "name": "amount",
          "type": "uint256"
        },
        {
          "internalType": "string",
          "name": "uniqueId",
          "type": "string"
        }
      ],
      "name": "transferTokens",
      "outputs": [],
      "stateMutability": "nonpayable",
      "type": "function"
    }
  ],
  "bytecode": "0x6080604052600060025534801561001557600080fd5b50604051611ed4380380611ed483398181016040528101906100379190610121565b336000806101000a81548173ffffffffffffffffffffffffffffffffffffffff021916908373ffffffffffffffffffffffffffffffffffffffff16021790555080600160006101000a81548173ffffffffffffffffffffffffffffffffffffffff021916908373ffffffffffffffffffffffffffffffffffffffff1602179055505061014e565b600080fd5b600073ffffffffffffffffffffffffffffffffffffffff82169050919050565b60006100ee826100c3565b9050919050565b6100fe816100e3565b811461010957600080fd5b50565b60008151905061011b816100f5565b92915050565b600060208284031215610137576101366100be565b5b60006101458482850161010c565b91505092915050565b611d778061015d6000396000f3fe608060405234801561001057600080fd5b50600436106100ea5760003560e01c80638a22bece1161008c578063cd7c114711610066578063cd7c11471461028a578063e7106405146102ba578063f20a5724146102ea578063f8b2cb4f1461031a576100ea565b80638a22bece146101f55780638e878663146102255780639ace38c214610255576100ea565b80632f7ca46a116100c85780632f7ca46a1461015b5780633a54625b146101775780635c5cfab3146101955780638205e0ff146101c5576100ea565b806314e887e8146100ef57806326bed6661461010d57806329bc9f6a1461012b575b600080fd5b6100f761034a565b604051610104919061100f565b60405180910390f35b610115610350565b604051610122919061106b565b60405180910390f35b610145600480360381019061014091906111e0565b610374565b6040516101529190611411565b60405180910390f35b6101756004803603810190610170919061148b565b610616565b005b61017f610b31565b60405161018c919061156d565b60405180910390f35b6101af60048036038101906101aa9190611588565b610b57565b6040516101bc919061100f565b60405180910390f35b6101df60048036038101906101da9190611588565b610bbd565b6040516101ec919061100f565b60405180910390f35b61020f600480360381019061020a9190611588565b610bf8565b60405161021c919061100f565b60405180910390f35b61023f600480360381019061023a9190611588565b610c33565b60405161024c919061100f565b60405180910390f35b61026f600480360381019061026a91906115e4565b610c99565b6040516102819695949392919061165b565b60405180910390f35b6102a4600480360381019061029f91906116c3565b610d9d565b6040516102b1919061100f565b60405180910390f35b6102d460048036038101906102cf9190611588565b610de4565b6040516102e1919061100f565b60405180910390f35b61030460048036038101906102ff91906111e0565b610e1f565b604051610311919061100f565b60405180910390f35b610334600480360381019061032f919061171f565b610eef565b604051610341919061100f565b60405180910390f35b60025481565b60008054906101000a900473ffffffffffffffffffffffffffffffffffffffff1681565b606060006004836040516103889190611788565b90815260200160405180910390208054806020026020016040519081016040528092919081815260200182805480156103e057602002820191906000526020600020905b8154815260200190600101908083116103cc575b505050505090506000815167ffffffffffffffff811115610404576104036110b5565b5b60405190808252806020026020018201604052801561043d57816020015b61042a610f94565b8152602001906001900390816104225790505b50905060005b825181101561060b57600360008483815181106104635761046261179f565b5b602002602001015181526020019081526020016000206040518060c0016040529081600082015481526020016001820160009054906101000a900473ffffffffffffffffffffffffffffffffffffffff1673ffffffffffffffffffffffffffffffffffffffff1673ffffffffffffffffffffffffffffffffffffffff1681526020016002820160009054906101000a900473ffffffffffffffffffffffffffffffffffffffff1673ffffffffffffffffffffffffffffffffffffffff1673ffffffffffffffffffffffffffffffffffffffff16815260200160038201548152602001600482018054610554906117fd565b80601f0160208091040260200160405190810160405280929190818152602001828054610580906117fd565b80156105cd5780601f106105a2576101008083540402835291602001916105cd565b820191906000526020600020905b8154815290600101906020018083116105b057829003601f168201915b505050505081526020016005820154815250508282815181106105f3576105f261179f565b5b60200260200101819052508080600101915050610443565b508092505050919050565b81600160009054906101000a900473ffffffffffffffffffffffffffffffffffffffff1673ffffffffffffffffffffffffffffffffffffffff166370a08231866040518263ffffffff1660e01b8152600401610672919061106b565b602060405180830381865afa15801561068f573d6000803e3d6000fd5b505050506040513d601f19601f820116820180604052508101906106b39190611843565b10156106f4576040517f08c379a00000000000000000000000000000000000000000000000000000000081526004016106eb906118bc565b60405180910390fd5b600160009054906101000a900473ffffffffffffffffffffffffffffffffffffffff1673ffffffffffffffffffffffffffffffffffffffff166323b872dd8585856040518463ffffffff1660e01b8152600401610753939291906118dc565b6020604051808303816000875af1158015610772573d6000803e3d6000fd5b505050506040513d601f19601f82011682018060405250810190610796919061194b565b6107d5576040517f08c379a00000000000000000000000000000000000000000000000000000000081526004016107cc906119c4565b60405180910390fd5b81600660008573ffffffffffffffffffffffffffffffffffffffff1673ffffffffffffffffffffffffffffffffffffffff168152602001908152602001600020826040516108239190611788565b908152602001604051809103902060008282546108409190611a13565b9250508190555081600760008673ffffffffffffffffffffffffffffffffffffffff1673ffffffffffffffffffffffffffffffffffffffff168152602001908152602001600020826040516108959190611788565b908152602001604051809103902060008282546108b29190611a13565b9250508190555081600560008573ffffffffffffffffffffffffffffffffffffffff1673ffffffffffffffffffffffffffffffffffffffff168152602001908152602001600020826040516109079190611788565b908152602001604051809103902060008282546109249190611a13565b925050819055506002600081548092919061093e90611a47565b91905055506040518060c0016040528060025481526020018573ffffffffffffffffffffffffffffffffffffffff1681526020018473ffffffffffffffffffffffffffffffffffffffff168152602001838152602001828152602001428152506003600060025481526020019081526020016000206000820151816000015560208201518160010160006101000a81548173ffffffffffffffffffffffffffffffffffffffff021916908373ffffffffffffffffffffffffffffffffffffffff16021790555060408201518160020160006101000a81548173ffffffffffffffffffffffffffffffffffffffff021916908373ffffffffffffffffffffffffffffffffffffffff160217905550606082015181600301556080820151816004019081610a6a9190611c31565b5060a08201518160050155905050600481604051610a889190611788565b908152602001604051809103902060025490806001815401808255809150506001900390600052602060002001600090919091909150558273ffffffffffffffffffffffffffffffffffffffff168473ffffffffffffffffffffffffffffffffffffffff166002547fbd0380467c0447c6019ebf1a1a832a0fb31e4d1b43cf1d62b98392e8b56b8038858542604051610b2393929190611d03565b60405180910390a450505050565b600160009054906101000a900473ffffffffffffffffffffffffffffffffffffffff1681565b6000600660008473ffffffffffffffffffffffffffffffffffffffff1673ffffffffffffffffffffffffffffffffffffffff16815260200190815260200160002082604051610ba69190611788565b908152602001604051809103902054905092915050565b600760205281600052604060002081805160208101820180518482526020830160208501208183528095505050505050600091509150505481565b600660205281600052604060002081805160208101820180518482526020830160208501208183528095505050505050600091509150505481565b6000600760008473ffffffffffffffffffffffffffffffffffffffff1673ffffffffffffffffffffffffffffffffffffffff16815260200190815260200160002082604051610c829190611788565b908152602001604051809103902054905092915050565b60036020528060005260406000206000915090508060000154908060010160009054906101000a900473ffffffffffffffffffffffffffffffffffffffff16908060020160009054906101000a900473ffffffffffffffffffffffffffffffffffffffff1690806003015490806004018054610d14906117fd565b80601f0160208091040260200160405190810160405280929190818152602001828054610d40906117fd565b8015610d8d5780601f10610d6257610100808354040283529160200191610d8d565b820191906000526020600020905b815481529060010190602001808311610d7057829003601f168201915b5050505050908060050154905086565b6004828051602081018201805184825260208301602085012081835280955050505050508181548110610dcf57600080fd5b90600052602060002001600091509150505481565b600560205281600052604060002081805160208101820180518482526020830160208501208183528095505050505050600091509150505481565b600080600483604051610e329190611788565b9081526020016040518091039020805480602002602001604051908101604052809291908181526020018280548015610e8a57602002820191906000526020600020905b815481526020019060010190808311610e76575b5050505050905060005b8151811015610ee85760036000838381518110610eb457610eb361179f565b5b602002602001015181526020019081526020016000206003015483610ed99190611a13565b92508080600101915050610e94565b5050919050565b6000600160009054906101000a900473ffffffffffffffffffffffffffffffffffffffff1673ffffffffffffffffffffffffffffffffffffffff166370a08231836040518263ffffffff1660e01b8152600401610f4c919061106b565b602060405180830381865afa158015610f69573d6000803e3d6000fd5b505050506040513d601f19601f82011682018060405250810190610f8d9190611843565b9050919050565b6040518060c0016040528060008152602001600073ffffffffffffffffffffffffffffffffffffffff168152602001600073ffffffffffffffffffffffffffffffffffffffff1681526020016000815260200160608152602001600081525090565b6000819050919050565b61100981610ff6565b82525050565b60006020820190506110246000830184611000565b92915050565b600073ffffffffffffffffffffffffffffffffffffffff82169050919050565b60006110558261102a565b9050919050565b6110658161104a565b82525050565b6000602082019050611080600083018461105c565b92915050565b6000604051905090565b600080fd5b600080fd5b600080fd5b600080fd5b6000601f19601f8301169050919050565b7f4e487b7100000000000000000000000000000000000000000000000000000000600052604160045260246000fd5b6110ed826110a4565b810181811067ffffffffffffffff8211171561110c5761110b6110b5565b5b80604052505050565b600061111f611086565b905061112b82826110e4565b919050565b600067ffffffffffffffff82111561114b5761114a6110b5565b5b611154826110a4565b9050602081019050919050565b82818337600083830152505050565b600061118361117e84611130565b611115565b90508281526020810184848401111561119f5761119e61109f565b5b6111aa848285611161565b509392505050565b600082601f8301126111c7576111c661109a565b5b81356111d7848260208601611170565b91505092915050565b6000602082840312156111f6576111f5611090565b5b600082013567ffffffffffffffff81111561121457611213611095565b5b611220848285016111b2565b91505092915050565b600081519050919050565b600082825260208201905092915050565b6000819050602082019050919050565b61125e81610ff6565b82525050565b61126d8161104a565b82525050565b600081519050919050565b600082825260208201905092915050565b60005b838110156112ad578082015181840152602081019050611292565b60008484015250505050565b60006112c482611273565b6112ce818561127e565b93506112de81856020860161128f565b6112e7816110a4565b840191505092915050565b600060c08301600083015161130a6000860182611255565b50602083015161131d6020860182611264565b5060408301516113306040860182611264565b5060608301516113436060860182611255565b506080830151848203608086015261135b82826112b9565b91505060a083015161137060a0860182611255565b508091505092915050565b600061138783836112f2565b905092915050565b6000602082019050919050565b60006113a782611229565b6113b18185611234565b9350836020820285016113c385611245565b8060005b858110156113ff57848403895281516113e0858261137b565b94506113eb8361138f565b925060208a019950506001810190506113c7565b50829750879550505050505092915050565b6000602082019050818103600083015261142b818461139c565b905092915050565b61143c8161104a565b811461144757600080fd5b50565b60008135905061145981611433565b92915050565b61146881610ff6565b811461147357600080fd5b50565b6000813590506114858161145f565b92915050565b600080600080608085870312156114a5576114a4611090565b5b60006114b38782880161144a565b94505060206114c48782880161144a565b93505060406114d587828801611476565b925050606085013567ffffffffffffffff8111156114f6576114f5611095565b5b611502878288016111b2565b91505092959194509250565b6000819050919050565b600061153361152e6115298461102a565b61150e565b61102a565b9050919050565b600061154582611518565b9050919050565b60006115578261153a565b9050919050565b6115678161154c565b82525050565b6000602082019050611582600083018461155e565b92915050565b6000806040838503121561159f5761159e611090565b5b60006115ad8582860161144a565b925050602083013567ffffffffffffffff8111156115ce576115cd611095565b5b6115da858286016111b2565b9150509250929050565b6000602082840312156115fa576115f9611090565b5b600061160884828501611476565b91505092915050565b600082825260208201905092915050565b600061162d82611273565b6116378185611611565b935061164781856020860161128f565b611650816110a4565b840191505092915050565b600060c0820190506116706000830189611000565b61167d602083018861105c565b61168a604083018761105c565b6116976060830186611000565b81810360808301526116a98185611622565b90506116b860a0830184611000565b979650505050505050565b600080604083850312156116da576116d9611090565b5b600083013567ffffffffffffffff8111156116f8576116f7611095565b5b611704858286016111b2565b925050602061171585828601611476565b9150509250929050565b60006020828403121561173557611734611090565b5b60006117438482850161144a565b91505092915050565b600081905092915050565b600061176282611273565b61176c818561174c565b935061177c81856020860161128f565b80840191505092915050565b60006117948284611757565b915081905092915050565b7f4e487b7100000000000000000000000000000000000000000000000000000000600052603260045260246000fd5b7f4e487b7100000000000000000000000000000000000000000000000000000000600052602260045260246000fd5b6000600282049050600182168061181557607f821691505b602082108103611828576118276117ce565b5b50919050565b60008151905061183d8161145f565b92915050565b60006020828403121561185957611858611090565b5b60006118678482850161182e565b91505092915050565b7f496e73756666696369656e742046544b2062616c616e63652e00000000000000600082015250565b60006118a6601983611611565b91506118b182611870565b602082019050919050565b600060208201905081810360008301526118d581611899565b9050919050565b60006060820190506118f1600083018661105c565b6118fe602083018561105c565b61190b6040830184611000565b949350505050565b60008115159050919050565b61192881611913565b811461193357600080fd5b50565b6000815190506119458161191f565b92915050565b60006020828403121561196157611960611090565b5b600061196f84828501611936565b91505092915050565b7f546f6b656e207472616e73666572206661696c65642e00000000000000000000600082015250565b60006119ae601683611611565b91506119b982611978565b602082019050919050565b600060208201905081810360008301526119dd816119a1565b9050919050565b7f4e487b7100000000000000000000000000000000000000000000000000000000600052601160045260246000fd5b6000611a1e82610ff6565b9150611a2983610ff6565b9250828201905080821115611a4157611a406119e4565b5b92915050565b6000611a5282610ff6565b91507fffffffffffffffffffffffffffffffffffffffffffffffffffffffffffffffff8203611a8457611a836119e4565b5b600182019050919050565b60008190508160005260206000209050919050565b60006020601f8301049050919050565b600082821b905092915050565b600060088302611af17fffffffffffffffffffffffffffffffffffffffffffffffffffffffffffffffff82611ab4565b611afb8683611ab4565b95508019841693508086168417925050509392505050565b6000611b2e611b29611b2484610ff6565b61150e565b610ff6565b9050919050565b6000819050919050565b611b4883611b13565b611b5c611b5482611b35565b848454611ac1565b825550505050565b600090565b611b71611b64565b611b7c818484611b3f565b505050565b5b81811015611ba057611b95600082611b69565b600181019050611b82565b5050565b601f821115611be557611bb681611a8f565b611bbf84611aa4565b81016020851015611bce578190505b611be2611bda85611aa4565b830182611b81565b50505b505050565b600082821c905092915050565b6000611c0860001984600802611bea565b1980831691505092915050565b6000611c218383611bf7565b9150826002028217905092915050565b611c3a82611273565b67ffffffffffffffff811115611c5357611c526110b5565b5b611c5d82546117fd565b611c68828285611ba4565b600060209050601f831160018114611c9b5760008415611c89578287015190505b611c938582611c15565b865550611cfb565b601f198416611ca986611a8f565b60005b82811015611cd157848901518255600182019150602085019450602081019050611cac565b86831015611cee5784890151611cea601f891682611bf7565b8355505b6001600288020188555050505b505050505050565b6000606082019050611d186000830186611000565b8181036020830152611d2a8185611622565b9050611d396040830184611000565b94935050505056fea26469706673582212204f8d140bfad34b577281921ddaf22bbcee3afee9b81ecbc79684ad5efdf97eee64736f6c634300081c0033",
  "linkReferences": {},
  "deployedLinkReferences": {}
}