{
  "_format": "hh-sol-artifact-1",
  "contractName": "SchemeHolderFund",
  "sourceName": "Contracts/NewScheme.sol",
  "abi": [
    {
      "inputs": [
        {
          "internalType": "address",
          "name": "_govToken",
          "type": "address"
        }
      ],
      "stateMutability": "nonpayable",
      "type": "constructor"
    },
    {
      "anonymous": false,
      "inputs": [
        {
          "indexed": true,
          "internalType": "address",
          "name": "sender",
          "type": "address"
        },
        {
          "indexed": true,
          "internalType": "address",
          "name": "receiver",
          "type": "address"
        },
        {
          "indexed": false,
          "internalType": "uint256",
          "name": "amount",
          "type": "uint256"
        },
        {
          "indexed": false,
          "internalType": "string",
          "name": "schemeId",
          "type": "string"
        },
        {
          "indexed": false,
          "internalType": "string",
          "name": "applicationId",
          "type": "string"
        }
      ],
      "name": "FundTransferred",
      "type": "event"
    },
    {
      "anonymous": false,
      "inputs": [
        {
          "indexed": true,
          "internalType": "address",
          "name": "schemeHolder",
          "type": "address"
        },
        {
          "indexed": false,
          "internalType": "uint256",
          "name": "amount",
          "type": "uint256"
        }
      ],
      "name": "TokensAcknowledged",
      "type": "event"
    },
    {
      "anonymous": false,
      "inputs": [
        {
          "indexed": true,
          "internalType": "address",
          "name": "bank",
          "type": "address"
        },
        {
          "indexed": false,
          "internalType": "uint256",
          "name": "amount",
          "type": "uint256"
        }
      ],
      "name": "TokensReturnedToGov",
      "type": "event"
    },
    {
      "inputs": [],
      "name": "centralGovernment",
      "outputs": [
        {
          "internalType": "address",
          "name": "",
          "type": "address"
        }
      ],
      "stateMutability": "view",
      "type": "function"
    },
    {
      "inputs": [],
      "name": "govToken",
      "outputs": [
        {
          "internalType": "contract GovToken",
          "name": "",
          "type": "address"
        }
      ],
      "stateMutability": "view",
      "type": "function"
    },
    {
      "inputs": [
        {
          "internalType": "bytes32",
          "name": "",
          "type": "bytes32"
        }
      ],
      "name": "transactions",
      "outputs": [
        {
          "internalType": "address",
          "name": "sender",
          "type": "address"
        },
        {
          "internalType": "address",
          "name": "receiver",
          "type": "address"
        },
        {
          "internalType": "uint256",
          "name": "amount",
          "type": "uint256"
        },
        {
          "internalType": "string",
          "name": "schemeId",
          "type": "string"
        },
        {
          "internalType": "string",
          "name": "applicationId",
          "type": "string"
        },
        {
          "internalType": "uint256",
          "name": "timestamp",
          "type": "uint256"
        }
      ],
      "stateMutability": "view",
      "type": "function"
    },
    {
      "inputs": [
        {
          "internalType": "address",
          "name": "bank",
          "type": "address"
        },
        {
          "internalType": "uint256",
          "name": "amount",
          "type": "uint256"
        },
        {
          "internalType": "string",
          "name": "schemeId",
          "type": "string"
        },
        {
          "internalType": "string",
          "name": "applicationId",
          "type": "string"
        }
      ],
      "name": "transferToBank",
      "outputs": [],
      "stateMutability": "nonpayable",
      "type": "function"
    },
    {
      "inputs": [
        {
          "internalType": "address",
          "name": "bank",
          "type": "address"
        },
        {
          "internalType": "uint256",
          "name": "amount",
          "type": "uint256"
        }
      ],
      "name": "transferToCentralGov",
      "outputs": [],
      "stateMutability": "nonpayable",
      "type": "function"
    },
    {
      "inputs": [
        {
          "internalType": "address",
          "name": "schemeHolder",
          "type": "address"
        },
        {
          "internalType": "uint256",
          "name": "amount",
          "type": "uint256"
        },
        {
          "internalType": "string",
          "name": "schemeId",
          "type": "string"
        },
        {
          "internalType": "string",
          "name": "applicationId",
          "type": "string"
        }
      ],
      "name": "transferToSchemeHolder",
      "outputs": [],
      "stateMutability": "nonpayable",
      "type": "function"
    },
    {
      "inputs": [
        {
          "internalType": "address",
          "name": "state",
          "type": "address"
        },
        {
          "internalType": "uint256",
          "name": "amount",
          "type": "uint256"
        },
        {
          "internalType": "string",
          "name": "schemeId",
          "type": "string"
        }
      ],
      "name": "transferToState",
      "outputs": [],
      "stateMutability": "nonpayable",
      "type": "function"
    }
  ],
  "bytecode": "0x608060405234801561001057600080fd5b5060405161187a38038061187a8339818101604052810190610032919061018b565b600073ffffffffffffffffffffffffffffffffffffffff168173ffffffffffffffffffffffffffffffffffffffff16036100a1576040517f08c379a00000000000000000000000000000000000000000000000000000000081526004016100989061023b565b60405180910390fd5b806000806101000a81548173ffffffffffffffffffffffffffffffffffffffff021916908373ffffffffffffffffffffffffffffffffffffffff16021790555033600160006101000a81548173ffffffffffffffffffffffffffffffffffffffff021916908373ffffffffffffffffffffffffffffffffffffffff1602179055505061025b565b600080fd5b600073ffffffffffffffffffffffffffffffffffffffff82169050919050565b60006101588261012d565b9050919050565b6101688161014d565b811461017357600080fd5b50565b6000815190506101858161015f565b92915050565b6000602082840312156101a1576101a0610128565b5b60006101af84828501610176565b91505092915050565b600082825260208201905092915050565b7f536368656d65486f6c64657246756e643a20496e76616c696420746f6b656e2060008201527f636f6e7472616374206164647265737300000000000000000000000000000000602082015250565b60006102256030836101b8565b9150610230826101c9565b604082019050919050565b6000602082019050818103600083015261025481610218565b9050919050565b6116108061026a6000396000f3fe608060405234801561001057600080fd5b506004361061007d5760003560e01c80635dbe526f1161005b5780635dbe526f146100d8578063642f2eaf146100f657806381edfb5d1461012b578063b9f682ce146101475761007d565b806305268cff1461008257806328dd5263146100a057806346ee6d71146100bc575b600080fd5b61008a610163565b6040516100979190610b4d565b60405180910390f35b6100ba60048036038101906100b59190610d36565b610187565b005b6100d660048036038101906100d19190610da5565b6103d4565b005b6100e0610594565b6040516100ed9190610e53565b60405180910390f35b610110600480360381019061010b9190610ea4565b6105ba565b60405161012296959493929190610f5f565b60405180910390f35b61014560048036038101906101409190610da5565b610746565b005b610161600480360381019061015c9190610fce565b610908565b005b60008054906101000a900473ffffffffffffffffffffffffffffffffffffffff1681565b600160009054906101000a900473ffffffffffffffffffffffffffffffffffffffff1673ffffffffffffffffffffffffffffffffffffffff163373ffffffffffffffffffffffffffffffffffffffff1614610217576040517f08c379a000000000000000000000000000000000000000000000000000000000815260040161020e906110a6565b60405180910390fd5b600073ffffffffffffffffffffffffffffffffffffffff168373ffffffffffffffffffffffffffffffffffffffff1603610286576040517f08c379a000000000000000000000000000000000000000000000000000000000815260040161027d90611138565b60405180910390fd5b600082116102c9576040517f08c379a00000000000000000000000000000000000000000000000000000000081526004016102c0906111ca565b60405180910390fd5b60008054906101000a900473ffffffffffffffffffffffffffffffffffffffff1673ffffffffffffffffffffffffffffffffffffffff1663a9059cbb84846040518363ffffffff1660e01b81526004016103249291906111ea565b6020604051808303816000875af1158015610343573d6000803e3d6000fd5b505050506040513d601f19601f82011682018060405250810190610367919061124b565b508273ffffffffffffffffffffffffffffffffffffffff163373ffffffffffffffffffffffffffffffffffffffff167f27b01c807c599b8fe137aef95aee8f5be4785c77ab66e3475fe2a9125d618c6f84846040516103c79291906112c4565b60405180910390a3505050565b600073ffffffffffffffffffffffffffffffffffffffff168473ffffffffffffffffffffffffffffffffffffffff1603610443576040517f08c379a000000000000000000000000000000000000000000000000000000000815260040161043a90611379565b60405180910390fd5b60008311610486576040517f08c379a000000000000000000000000000000000000000000000000000000000815260040161047d906111ca565b60405180910390fd5b60008054906101000a900473ffffffffffffffffffffffffffffffffffffffff1673ffffffffffffffffffffffffffffffffffffffff1663a9059cbb85856040518363ffffffff1660e01b81526004016104e19291906111ea565b6020604051808303816000875af1158015610500573d6000803e3d6000fd5b505050506040513d601f19601f82011682018060405250810190610524919061124b565b508373ffffffffffffffffffffffffffffffffffffffff163373ffffffffffffffffffffffffffffffffffffffff167f27b01c807c599b8fe137aef95aee8f5be4785c77ab66e3475fe2a9125d618c6f85858560405161058693929190611399565b60405180910390a350505050565b600160009054906101000a900473ffffffffffffffffffffffffffffffffffffffff1681565b60026020528060005260406000206000915090508060000160009054906101000a900473ffffffffffffffffffffffffffffffffffffffff16908060010160009054906101000a900473ffffffffffffffffffffffffffffffffffffffff169080600201549080600301805461062f9061140d565b80601f016020809104026020016040519081016040528092919081815260200182805461065b9061140d565b80156106a85780601f1061067d576101008083540402835291602001916106a8565b820191906000526020600020905b81548152906001019060200180831161068b57829003601f168201915b5050505050908060040180546106bd9061140d565b80601f01602080910402602001604051908101604052809291908181526020018280546106e99061140d565b80156107365780601f1061070b57610100808354040283529160200191610736565b820191906000526020600020905b81548152906001019060200180831161071957829003601f168201915b5050505050908060050154905086565b600073ffffffffffffffffffffffffffffffffffffffff168473ffffffffffffffffffffffffffffffffffffffff16036107b5576040517f08c379a00000000000000000000000000000000000000000000000000000000081526004016107ac906114b0565b60405180910390fd5b600083116107f8576040517f08c379a00000000000000000000000000000000000000000000000000000000081526004016107ef906111ca565b60405180910390fd5b60008054906101000a900473ffffffffffffffffffffffffffffffffffffffff1673ffffffffffffffffffffffffffffffffffffffff166323b872dd3386866040518463ffffffff1660e01b8152600401610855939291906114d0565b6020604051808303816000875af1158015610874573d6000803e3d6000fd5b505050506040513d601f19601f82011682018060405250810190610898919061124b565b508373ffffffffffffffffffffffffffffffffffffffff163373ffffffffffffffffffffffffffffffffffffffff167f27b01c807c599b8fe137aef95aee8f5be4785c77ab66e3475fe2a9125d618c6f8585856040516108fa93929190611399565b60405180910390a350505050565b8173ffffffffffffffffffffffffffffffffffffffff163373ffffffffffffffffffffffffffffffffffffffff1614610976576040517f08c379a000000000000000000000000000000000000000000000000000000000815260040161096d9061159f565b60405180910390fd5b600081116109b9576040517f08c379a00000000000000000000000000000000000000000000000000000000081526004016109b0906111ca565b60405180910390fd5b60008054906101000a900473ffffffffffffffffffffffffffffffffffffffff1673ffffffffffffffffffffffffffffffffffffffff166323b872dd83600160009054906101000a900473ffffffffffffffffffffffffffffffffffffffff16846040518463ffffffff1660e01b8152600401610a38939291906114d0565b6020604051808303816000875af1158015610a57573d6000803e3d6000fd5b505050506040513d601f19601f82011682018060405250810190610a7b919061124b565b508173ffffffffffffffffffffffffffffffffffffffff167f3bad0d083c9275fdd18657b00f7224b5720bd6cb392d9e8c3a1127072513d2a482604051610ac291906115bf565b60405180910390a25050565b600073ffffffffffffffffffffffffffffffffffffffff82169050919050565b6000819050919050565b6000610b13610b0e610b0984610ace565b610aee565b610ace565b9050919050565b6000610b2582610af8565b9050919050565b6000610b3782610b1a565b9050919050565b610b4781610b2c565b82525050565b6000602082019050610b626000830184610b3e565b92915050565b6000604051905090565b600080fd5b600080fd5b6000610b8782610ace565b9050919050565b610b9781610b7c565b8114610ba257600080fd5b50565b600081359050610bb481610b8e565b92915050565b6000819050919050565b610bcd81610bba565b8114610bd857600080fd5b50565b600081359050610bea81610bc4565b92915050565b600080fd5b600080fd5b6000601f19601f8301169050919050565b7f4e487b7100000000000000000000000000000000000000000000000000000000600052604160045260246000fd5b610c4382610bfa565b810181811067ffffffffffffffff82111715610c6257610c61610c0b565b5b80604052505050565b6000610c75610b68565b9050610c818282610c3a565b919050565b600067ffffffffffffffff821115610ca157610ca0610c0b565b5b610caa82610bfa565b9050602081019050919050565b82818337600083830152505050565b6000610cd9610cd484610c86565b610c6b565b905082815260208101848484011115610cf557610cf4610bf5565b5b610d00848285610cb7565b509392505050565b600082601f830112610d1d57610d1c610bf0565b5b8135610d2d848260208601610cc6565b91505092915050565b600080600060608486031215610d4f57610d4e610b72565b5b6000610d5d86828701610ba5565b9350506020610d6e86828701610bdb565b925050604084013567ffffffffffffffff811115610d8f57610d8e610b77565b5b610d9b86828701610d08565b9150509250925092565b60008060008060808587031215610dbf57610dbe610b72565b5b6000610dcd87828801610ba5565b9450506020610dde87828801610bdb565b935050604085013567ffffffffffffffff811115610dff57610dfe610b77565b5b610e0b87828801610d08565b925050606085013567ffffffffffffffff811115610e2c57610e2b610b77565b5b610e3887828801610d08565b91505092959194509250565b610e4d81610b7c565b82525050565b6000602082019050610e686000830184610e44565b92915050565b6000819050919050565b610e8181610e6e565b8114610e8c57600080fd5b50565b600081359050610e9e81610e78565b92915050565b600060208284031215610eba57610eb9610b72565b5b6000610ec884828501610e8f565b91505092915050565b610eda81610bba565b82525050565b600081519050919050565b600082825260208201905092915050565b60005b83811015610f1a578082015181840152602081019050610eff565b60008484015250505050565b6000610f3182610ee0565b610f3b8185610eeb565b9350610f4b818560208601610efc565b610f5481610bfa565b840191505092915050565b600060c082019050610f746000830189610e44565b610f816020830188610e44565b610f8e6040830187610ed1565b8181036060830152610fa08186610f26565b90508181036080830152610fb48185610f26565b9050610fc360a0830184610ed1565b979650505050505050565b60008060408385031215610fe557610fe4610b72565b5b6000610ff385828601610ba5565b925050602061100485828601610bdb565b9150509250929050565b7f536368656d65486f6c64657246756e643a204f6e6c792063656e7472616c206760008201527f6f7665726e6d656e7420697320616c6c6f77656420746f20706572666f726d2060208201527f7468697320616374696f6e000000000000000000000000000000000000000000604082015250565b6000611090604b83610eeb565b915061109b8261100e565b606082019050919050565b600060208201905081810360008301526110bf81611083565b9050919050565b7f536368656d65486f6c64657246756e643a20496e76616c69642073746174652060008201527f6164647265737300000000000000000000000000000000000000000000000000602082015250565b6000611122602783610eeb565b915061112d826110c6565b604082019050919050565b6000602082019050818103600083015261115181611115565b9050919050565b7f536368656d65486f6c64657246756e643a205472616e7366657220616d6f756e60008201527f74206d7573742062652067726561746572207468616e207a65726f0000000000602082015250565b60006111b4603b83610eeb565b91506111bf82611158565b604082019050919050565b600060208201905081810360008301526111e3816111a7565b9050919050565b60006040820190506111ff6000830185610e44565b61120c6020830184610ed1565b9392505050565b60008115159050919050565b61122881611213565b811461123357600080fd5b50565b6000815190506112458161121f565b92915050565b60006020828403121561126157611260610b72565b5b600061126f84828501611236565b91505092915050565b7f4e2f410000000000000000000000000000000000000000000000000000000000600082015250565b60006112ae600383610eeb565b91506112b982611278565b602082019050919050565b60006060820190506112d96000830185610ed1565b81810360208301526112eb8184610f26565b905081810360408301526112fe816112a1565b90509392505050565b7f536368656d65486f6c64657246756e643a20496e76616c696420736368656d6560008201527f20686f6c64657220616464726573730000000000000000000000000000000000602082015250565b6000611363602f83610eeb565b915061136e82611307565b604082019050919050565b6000602082019050818103600083015261139281611356565b9050919050565b60006060820190506113ae6000830186610ed1565b81810360208301526113c08185610f26565b905081810360408301526113d48184610f26565b9050949350505050565b7f4e487b7100000000000000000000000000000000000000000000000000000000600052602260045260246000fd5b6000600282049050600182168061142557607f821691505b602082108103611438576114376113de565b5b50919050565b7f536368656d65486f6c64657246756e643a20496e76616c69642062616e6b206160008201527f6464726573730000000000000000000000000000000000000000000000000000602082015250565b600061149a602683610eeb565b91506114a58261143e565b604082019050919050565b600060208201905081810360008301526114c98161148d565b9050919050565b60006060820190506114e56000830186610e44565b6114f26020830185610e44565b6114ff6040830184610ed1565b949350505050565b7f536368656d65486f6c64657246756e643a204f6e6c792062616e6b2063616e2060008201527f72657475726e2066756e647320746f207468652063656e7472616c20676f766560208201527f726e6d656e740000000000000000000000000000000000000000000000000000604082015250565b6000611589604683610eeb565b915061159482611507565b606082019050919050565b600060208201905081810360008301526115b88161157c565b9050919050565b60006020820190506115d46000830184610ed1565b9291505056fea264697066735822122068f622111758cb03d5ca2b0cfc0c2e732d0778554fd732d9f33be545fce7593664736f6c634300081c0033",
  "linkReferences": {},
  "deployedLinkReferences": {}
}